{
  "_format": "hh-sol-artifact-1",
  "contractName": "Marketplace",
  "sourceName": "contracts/Marketplace.sol",
  "abi": [
    {
      "inputs": [],
      "stateMutability": "nonpayable",
      "type": "constructor"
    },
    {
      "inputs": [
        {
          "internalType": "address",
          "name": "sender",
          "type": "address"
        },
        {
          "internalType": "uint256",
          "name": "tokenId",
          "type": "uint256"
        },
        {
          "internalType": "address",
          "name": "owner",
          "type": "address"
        }
      ],
      "name": "ERC721IncorrectOwner",
      "type": "error"
    },
    {
      "inputs": [
        {
          "internalType": "address",
          "name": "operator",
          "type": "address"
        },
        {
          "internalType": "uint256",
          "name": "tokenId",
          "type": "uint256"
        }
      ],
      "name": "ERC721InsufficientApproval",
      "type": "error"
    },
    {
      "inputs": [
        {
          "internalType": "address",
          "name": "approver",
          "type": "address"
        }
      ],
      "name": "ERC721InvalidApprover",
      "type": "error"
    },
    {
      "inputs": [
        {
          "internalType": "address",
          "name": "operator",
          "type": "address"
        }
      ],
      "name": "ERC721InvalidOperator",
      "type": "error"
    },
    {
      "inputs": [
        {
          "internalType": "address",
          "name": "owner",
          "type": "address"
        }
      ],
      "name": "ERC721InvalidOwner",
      "type": "error"
    },
    {
      "inputs": [
        {
          "internalType": "address",
          "name": "receiver",
          "type": "address"
        }
      ],
      "name": "ERC721InvalidReceiver",
      "type": "error"
    },
    {
      "inputs": [
        {
          "internalType": "address",
          "name": "sender",
          "type": "address"
        }
      ],
      "name": "ERC721InvalidSender",
      "type": "error"
    },
    {
      "inputs": [
        {
          "internalType": "uint256",
          "name": "tokenId",
          "type": "uint256"
        }
      ],
      "name": "ERC721NonexistentToken",
      "type": "error"
    },
    {
      "inputs": [
        {
          "internalType": "address",
          "name": "owner",
          "type": "address"
        }
      ],
      "name": "OwnableInvalidOwner",
      "type": "error"
    },
    {
      "inputs": [
        {
          "internalType": "address",
          "name": "account",
          "type": "address"
        }
      ],
      "name": "OwnableUnauthorizedAccount",
      "type": "error"
    },
    {
      "anonymous": false,
      "inputs": [
        {
          "indexed": true,
          "internalType": "address",
          "name": "owner",
          "type": "address"
        },
        {
          "indexed": true,
          "internalType": "address",
          "name": "approved",
          "type": "address"
        },
        {
          "indexed": true,
          "internalType": "uint256",
          "name": "tokenId",
          "type": "uint256"
        }
      ],
      "name": "Approval",
      "type": "event"
    },
    {
      "anonymous": false,
      "inputs": [
        {
          "indexed": true,
          "internalType": "address",
          "name": "owner",
          "type": "address"
        },
        {
          "indexed": true,
          "internalType": "address",
          "name": "operator",
          "type": "address"
        },
        {
          "indexed": false,
          "internalType": "bool",
          "name": "approved",
          "type": "bool"
        }
      ],
      "name": "ApprovalForAll",
      "type": "event"
    },
    {
      "anonymous": false,
      "inputs": [
        {
          "indexed": false,
          "internalType": "uint256",
          "name": "_fromTokenId",
          "type": "uint256"
        },
        {
          "indexed": false,
          "internalType": "uint256",
          "name": "_toTokenId",
          "type": "uint256"
        }
      ],
      "name": "BatchMetadataUpdate",
      "type": "event"
    },
    {
      "anonymous": false,
      "inputs": [
        {
          "indexed": false,
          "internalType": "uint256",
          "name": "tokenId",
          "type": "uint256"
        },
        {
          "indexed": false,
          "internalType": "address",
          "name": "seller",
          "type": "address"
        },
        {
          "indexed": false,
          "internalType": "uint96",
          "name": "price",
          "type": "uint96"
        }
      ],
      "name": "ItemListed",
      "type": "event"
    },
    {
      "anonymous": false,
      "inputs": [
        {
          "indexed": false,
          "internalType": "uint256",
          "name": "tokenId",
          "type": "uint256"
        },
        {
          "indexed": false,
          "internalType": "address",
          "name": "buyer",
          "type": "address"
        },
        {
          "indexed": false,
          "internalType": "uint96",
          "name": "price",
          "type": "uint96"
        }
      ],
      "name": "ItemSold",
      "type": "event"
    },
    {
      "anonymous": false,
      "inputs": [
        {
          "indexed": false,
          "internalType": "uint256",
          "name": "_tokenId",
          "type": "uint256"
        }
      ],
      "name": "MetadataUpdate",
      "type": "event"
    },
    {
      "anonymous": false,
      "inputs": [
        {
          "indexed": true,
          "internalType": "address",
          "name": "previousOwner",
          "type": "address"
        },
        {
          "indexed": true,
          "internalType": "address",
          "name": "newOwner",
          "type": "address"
        }
      ],
      "name": "OwnershipTransferred",
      "type": "event"
    },
    {
      "anonymous": false,
      "inputs": [
        {
          "indexed": true,
          "internalType": "address",
          "name": "from",
          "type": "address"
        },
        {
          "indexed": true,
          "internalType": "address",
          "name": "to",
          "type": "address"
        },
        {
          "indexed": true,
          "internalType": "uint256",
          "name": "tokenId",
          "type": "uint256"
        }
      ],
      "name": "Transfer",
      "type": "event"
    },
    {
      "inputs": [
        {
          "internalType": "address",
          "name": "to",
          "type": "address"
        },
        {
          "internalType": "uint256",
          "name": "tokenId",
          "type": "uint256"
        }
      ],
      "name": "approve",
      "outputs": [],
      "stateMutability": "nonpayable",
      "type": "function"
    },
    {
      "inputs": [
        {
          "internalType": "address",
          "name": "owner",
          "type": "address"
        }
      ],
      "name": "balanceOf",
      "outputs": [
        {
          "internalType": "uint256",
          "name": "",
          "type": "uint256"
        }
      ],
      "stateMutability": "view",
      "type": "function"
    },
    {
      "inputs": [
        {
          "internalType": "address",
          "name": "",
          "type": "address"
        }
      ],
      "name": "balances",
      "outputs": [
        {
          "internalType": "uint256",
          "name": "",
          "type": "uint256"
        }
      ],
      "stateMutability": "view",
      "type": "function"
    },
    {
      "inputs": [
        {
          "internalType": "uint256",
          "name": "_tokenId",
          "type": "uint256"
        }
      ],
      "name": "buy",
      "outputs": [],
      "stateMutability": "payable",
      "type": "function"
    },
    {
      "inputs": [
        {
          "internalType": "uint256",
          "name": "tokenId",
          "type": "uint256"
        }
      ],
      "name": "getApproved",
      "outputs": [
        {
          "internalType": "address",
          "name": "",
          "type": "address"
        }
      ],
      "stateMutability": "view",
      "type": "function"
    },
    {
      "inputs": [
        {
          "internalType": "uint256",
          "name": "_tokenId",
          "type": "uint256"
        }
      ],
      "name": "getListing",
      "outputs": [
        {
          "internalType": "address",
          "name": "",
          "type": "address"
        },
        {
          "internalType": "uint96",
          "name": "",
          "type": "uint96"
        },
        {
          "internalType": "bool",
          "name": "",
          "type": "bool"
        }
      ],
      "stateMutability": "view",
      "type": "function"
    },
    {
      "inputs": [
        {
          "internalType": "address",
          "name": "owner",
          "type": "address"
        },
        {
          "internalType": "address",
          "name": "operator",
          "type": "address"
        }
      ],
      "name": "isApprovedForAll",
      "outputs": [
        {
          "internalType": "bool",
          "name": "",
          "type": "bool"
        }
      ],
      "stateMutability": "view",
      "type": "function"
    },
    {
      "inputs": [
        {
          "internalType": "uint256",
          "name": "",
          "type": "uint256"
        }
      ],
      "name": "listings",
      "outputs": [
        {
          "internalType": "address",
          "name": "owner",
          "type": "address"
        },
        {
          "internalType": "uint96",
          "name": "price",
          "type": "uint96"
        },
        {
          "internalType": "bool",
          "name": "isSold",
          "type": "bool"
        }
      ],
      "stateMutability": "view",
      "type": "function"
    },
    {
      "inputs": [
        {
          "internalType": "string",
          "name": "_uri",
          "type": "string"
        },
        {
          "internalType": "uint96",
          "name": "_price",
          "type": "uint96"
        }
      ],
      "name": "mintAndList",
      "outputs": [],
      "stateMutability": "nonpayable",
      "type": "function"
    },
    {
      "inputs": [],
      "name": "name",
      "outputs": [
        {
          "internalType": "string",
          "name": "",
          "type": "string"
        }
      ],
      "stateMutability": "view",
      "type": "function"
    },
    {
      "inputs": [],
      "name": "nextTokenId",
      "outputs": [
        {
          "internalType": "uint256",
          "name": "",
          "type": "uint256"
        }
      ],
      "stateMutability": "view",
      "type": "function"
    },
    {
      "inputs": [],
      "name": "owner",
      "outputs": [
        {
          "internalType": "address",
          "name": "",
          "type": "address"
        }
      ],
      "stateMutability": "view",
      "type": "function"
    },
    {
      "inputs": [
        {
          "internalType": "uint256",
          "name": "tokenId",
          "type": "uint256"
        }
      ],
      "name": "ownerOf",
      "outputs": [
        {
          "internalType": "address",
          "name": "",
          "type": "address"
        }
      ],
      "stateMutability": "view",
      "type": "function"
    },
    {
      "inputs": [],
      "name": "renounceOwnership",
      "outputs": [],
      "stateMutability": "nonpayable",
      "type": "function"
    },
    {
      "inputs": [
        {
          "internalType": "address",
          "name": "from",
          "type": "address"
        },
        {
          "internalType": "address",
          "name": "to",
          "type": "address"
        },
        {
          "internalType": "uint256",
          "name": "tokenId",
          "type": "uint256"
        }
      ],
      "name": "safeTransferFrom",
      "outputs": [],
      "stateMutability": "nonpayable",
      "type": "function"
    },
    {
      "inputs": [
        {
          "internalType": "address",
          "name": "from",
          "type": "address"
        },
        {
          "internalType": "address",
          "name": "to",
          "type": "address"
        },
        {
          "internalType": "uint256",
          "name": "tokenId",
          "type": "uint256"
        },
        {
          "internalType": "bytes",
          "name": "data",
          "type": "bytes"
        }
      ],
      "name": "safeTransferFrom",
      "outputs": [],
      "stateMutability": "nonpayable",
      "type": "function"
    },
    {
      "inputs": [
        {
          "internalType": "address",
          "name": "operator",
          "type": "address"
        },
        {
          "internalType": "bool",
          "name": "approved",
          "type": "bool"
        }
      ],
      "name": "setApprovalForAll",
      "outputs": [],
      "stateMutability": "nonpayable",
      "type": "function"
    },
    {
      "inputs": [
        {
          "internalType": "bytes4",
          "name": "interfaceId",
          "type": "bytes4"
        }
      ],
      "name": "supportsInterface",
      "outputs": [
        {
          "internalType": "bool",
          "name": "",
          "type": "bool"
        }
      ],
      "stateMutability": "view",
      "type": "function"
    },
    {
      "inputs": [],
      "name": "symbol",
      "outputs": [
        {
          "internalType": "string",
          "name": "",
          "type": "string"
        }
      ],
      "stateMutability": "view",
      "type": "function"
    },
    {
      "inputs": [],
      "name": "tokenCounter",
      "outputs": [
        {
          "internalType": "uint256",
          "name": "",
          "type": "uint256"
        }
      ],
      "stateMutability": "view",
      "type": "function"
    },
    {
      "inputs": [
        {
          "internalType": "uint256",
          "name": "tokenId",
          "type": "uint256"
        }
      ],
      "name": "tokenURI",
      "outputs": [
        {
          "internalType": "string",
          "name": "",
          "type": "string"
        }
      ],
      "stateMutability": "view",
      "type": "function"
    },
    {
      "inputs": [
        {
          "internalType": "address",
          "name": "from",
          "type": "address"
        },
        {
          "internalType": "address",
          "name": "to",
          "type": "address"
        },
        {
          "internalType": "uint256",
          "name": "tokenId",
          "type": "uint256"
        }
      ],
      "name": "transferFrom",
      "outputs": [],
      "stateMutability": "nonpayable",
      "type": "function"
    },
    {
      "inputs": [
        {
          "internalType": "address",
          "name": "newOwner",
          "type": "address"
        }
      ],
      "name": "transferOwnership",
      "outputs": [],
      "stateMutability": "nonpayable",
      "type": "function"
    },
    {
      "inputs": [],
      "name": "withdraw",
      "outputs": [],
      "stateMutability": "nonpayable",
      "type": "function"
    }
  ],
  "bytecode": "0x60806040523480156200001157600080fd5b50336040518060400160405280600b81526020016a14185c98da585b0c93919560aa1b815250604051806040016040528060048152602001631413919560e21b8152508160009081620000659190620001af565b506001620000748282620001af565b5050506001600160a01b038116620000a657604051631e4fbdf760e01b81526000600482015260240160405180910390fd5b620000b181620000b8565b506200027b565b600780546001600160a01b038381166001600160a01b0319831681179093556040519116919082907f8be0079c531659141344cd1fd0a4f28419497f9722a3daafe3b4186f6b6457e090600090a35050565b634e487b7160e01b600052604160045260246000fd5b600181811c908216806200013557607f821691505b6020821081036200015657634e487b7160e01b600052602260045260246000fd5b50919050565b601f821115620001aa57600081815260208120601f850160051c81016020861015620001855750805b601f850160051c820191505b81811015620001a65782815560010162000191565b5050505b505050565b81516001600160401b03811115620001cb57620001cb6200010a565b620001e381620001dc845462000120565b846200015c565b602080601f8311600181146200021b5760008415620002025750858301515b600019600386901b1c1916600185901b178555620001a6565b600085815260208120601f198616915b828110156200024c578886015182559484019460019091019084016200022b565b50858210156200026b5787850151600019600388901b60f8161c191681555b5050505050600190811b01905550565b6119c0806200028b6000396000f3fe60806040526004361061014b5760003560e01c806372623274116100b6578063c87b56dd1161006f578063c87b56dd1461042f578063d082e3811461044f578063d96a094a14610464578063de74e57b14610477578063e985e9c5146104ca578063f2fde38b146104ea57600080fd5b8063726232741461038657806375794a3c146103a65780638da5cb5b146103bc57806395d89b41146103da578063a22cb465146103ef578063b88d4fde1461040f57600080fd5b806327e235e31161010857806327e235e3146102c15780633ccfd60b146102fc57806342842e0e146103115780636352211e1461033157806370a0823114610351578063715018a61461037157600080fd5b806301ffc9a71461015057806306fdde0314610185578063081812fc146101a7578063095ea7b3146101df578063107a274a1461020157806323b872dd146102a1575b600080fd5b34801561015c57600080fd5b5061017061016b36600461146b565b61050a565b60405190151581526020015b60405180910390f35b34801561019157600080fd5b5061019a610535565b60405161017c91906114d8565b3480156101b357600080fd5b506101c76101c23660046114eb565b6105c7565b6040516001600160a01b03909116815260200161017c565b3480156101eb57600080fd5b506101ff6101fa366004611520565b6105f0565b005b34801561020d57600080fd5b5061027261021c3660046114eb565b600090815260096020908152604091829020825160608101845281546001600160a01b038116808352600160a01b9091046001600160601b031693820184905260019092015460ff161515930183905292909190565b604080516001600160a01b0390941684526001600160601b03909216602084015215159082015260600161017c565b3480156102ad57600080fd5b506101ff6102bc36600461154a565b6105ff565b3480156102cd57600080fd5b506102ee6102dc366004611586565b600a6020526000908152604090205481565b60405190815260200161017c565b34801561030857600080fd5b506101ff61068f565b34801561031d57600080fd5b506101ff61032c36600461154a565b610714565b34801561033d57600080fd5b506101c761034c3660046114eb565b610734565b34801561035d57600080fd5b506102ee61036c366004611586565b61073f565b34801561037d57600080fd5b506101ff610787565b34801561039257600080fd5b506101ff6103a136600461162d565b61079b565b3480156103b257600080fd5b506102ee60085481565b3480156103c857600080fd5b506007546001600160a01b03166101c7565b3480156103e657600080fd5b5061019a610872565b3480156103fb57600080fd5b506101ff61040a36600461169f565b610881565b34801561041b57600080fd5b506101ff61042a3660046116d0565b61088c565b34801561043b57600080fd5b5061019a61044a3660046114eb565b6108a4565b34801561045b57600080fd5b506008546102ee565b6101ff6104723660046114eb565b6109b5565b34801561048357600080fd5b506102726104923660046114eb565b600960205260009081526040902080546001909101546001600160a01b03821691600160a01b90046001600160601b03169060ff1683565b3480156104d657600080fd5b506101706104e536600461174c565b610b06565b3480156104f657600080fd5b506101ff610505366004611586565b610b34565b60006001600160e01b03198216632483248360e11b148061052f575061052f82610b72565b92915050565b6060600080546105449061177f565b80601f01602080910402602001604051908101604052809291908181526020018280546105709061177f565b80156105bd5780601f10610592576101008083540402835291602001916105bd565b820191906000526020600020905b8154815290600101906020018083116105a057829003601f168201915b5050505050905090565b60006105d282610bc2565b506000828152600460205260409020546001600160a01b031661052f565b6105fb828233610bfb565b5050565b6001600160a01b03821661062e57604051633250574960e11b8152600060048201526024015b60405180910390fd5b600061063b838333610c08565b9050836001600160a01b0316816001600160a01b031614610689576040516364283d7b60e01b81526001600160a01b0380861660048301526024820184905282166044820152606401610625565b50505050565b336000908152600a6020526040902054806106d95760405162461bcd60e51b815260206004820152600a6024820152694e6f2062616c616e636560b01b6044820152606401610625565b336000818152600a60205260408082208290555183156108fc0291849190818181858888f193505050501580156105fb573d6000803e3d6000fd5b61072f8383836040518060200160405280600081525061088c565b505050565b600061052f82610bc2565b60006001600160a01b03821661076b576040516322718ad960e21b815260006004820152602401610625565b506001600160a01b031660009081526003602052604090205490565b61078f610d01565b6107996000610d2e565b565b60088054600091826107ac836117cf565b9190505590506107bc3382610d80565b6107c68184610de5565b6040805160608082018352338083526001600160601b03868116602080860182815260008789018181528a8252600984529089902097519151909416600160a01b026001600160a01b0390911617865591516001909501805495151560ff1990961695909517909455845186815290810191909152928301919091527f74853d0857487d8ab8813c4ff8c6740981eaa76fc83634f27c8f6b51d90b79d0910160405180910390a1505050565b6060600180546105449061177f565b6105fb338383610e2e565b6108978484846105ff565b6106893385858585610ecd565b60606108af82610bc2565b50600082815260066020526040812080546108c99061177f565b80601f01602080910402602001604051908101604052809291908181526020018280546108f59061177f565b80156109425780601f1061091757610100808354040283529160200191610942565b820191906000526020600020905b81548152906001019060200180831161092557829003601f168201915b50505050509050600061096060408051602081019091526000815290565b90508051600003610972575092915050565b8151156109a457808260405160200161098c9291906117e8565b60405160208183030381529060405292505050919050565b6109ad84610ff8565b949350505050565b6000818152600960205260409020600181015460ff1615610a0c5760405162461bcd60e51b8152602060048201526011602482015270125d195b48185b1c9958591e481cdbdb19607a1b6044820152606401610625565b8054600160a01b90046001600160601b03163414610a5c5760405162461bcd60e51b815260206004820152600d60248201526c092dcc6dee4e4cac6e8408aa89609b1b6044820152606401610625565b6001818101805460ff1916909117905580546001600160a01b03166000908152600a602052604081208054349290610a95908490611817565b90915550508054610ab0906001600160a01b0316338461106d565b805460408051848152336020820152600160a01b9092046001600160601b0316908201527f10398926f289f5e9e67a5906e08de3c9692f386c286650b189a7e72cec5cbcb5906060015b60405180910390a15050565b6001600160a01b03918216600090815260056020908152604080832093909416825291909152205460ff1690565b610b3c610d01565b6001600160a01b038116610b6657604051631e4fbdf760e01b815260006004820152602401610625565b610b6f81610d2e565b50565b60006001600160e01b031982166380ac58cd60e01b1480610ba357506001600160e01b03198216635b5e139f60e01b145b8061052f57506301ffc9a760e01b6001600160e01b031983161461052f565b6000818152600260205260408120546001600160a01b03168061052f57604051637e27328960e01b815260048101849052602401610625565b61072f838383600161111d565b6000828152600260205260408120546001600160a01b0390811690831615610c3557610c35818486611223565b6001600160a01b03811615610c7357610c5260008560008061111d565b6001600160a01b038116600090815260036020526040902080546000190190555b6001600160a01b03851615610ca2576001600160a01b0385166000908152600360205260409020805460010190555b60008481526002602052604080822080546001600160a01b0319166001600160a01b0389811691821790925591518793918516917fddf252ad1be2c89b69c2b068fc378daa952ba7f163c4a11628f55a4df523b3ef91a4949350505050565b6007546001600160a01b031633146107995760405163118cdaa760e01b8152336004820152602401610625565b600780546001600160a01b038381166001600160a01b0319831681179093556040519116919082907f8be0079c531659141344cd1fd0a4f28419497f9722a3daafe3b4186f6b6457e090600090a35050565b6001600160a01b038216610daa57604051633250574960e11b815260006004820152602401610625565b6000610db883836000610c08565b90506001600160a01b0381161561072f576040516339e3563760e11b815260006004820152602401610625565b6000828152600660205260409020610dfd8282611870565b506040518281527ff8e1a15aba9398e019f0b49df1a4fde98ee17ae345cb5f6b5e2c27f5033e8ce790602001610afa565b6001600160a01b038216610e6057604051630b61174360e31b81526001600160a01b0383166004820152602401610625565b6001600160a01b03838116600081815260056020908152604080832094871680845294825291829020805460ff191686151590811790915591519182527f17307eab39ab6107e8899845ad3d59bd9653f200f220920489ca2b5937696c31910160405180910390a3505050565b6001600160a01b0383163b15610ff157604051630a85bd0160e11b81526001600160a01b0384169063150b7a0290610f0f908890889087908790600401611930565b6020604051808303816000875af1925050508015610f4a575060408051601f3d908101601f19168201909252610f479181019061196d565b60015b610fb3573d808015610f78576040519150601f19603f3d011682016040523d82523d6000602084013e610f7d565b606091505b508051600003610fab57604051633250574960e11b81526001600160a01b0385166004820152602401610625565b805181602001fd5b6001600160e01b03198116630a85bd0160e11b14610fef57604051633250574960e11b81526001600160a01b0385166004820152602401610625565b505b5050505050565b606061100382610bc2565b50600061101b60408051602081019091526000815290565b9050600081511161103b5760405180602001604052806000815250611066565b8061104584611287565b6040516020016110569291906117e8565b6040516020818303038152906040525b9392505050565b6001600160a01b03821661109757604051633250574960e11b815260006004820152602401610625565b60006110a583836000610c08565b90506001600160a01b0381166110d157604051637e27328960e01b815260048101839052602401610625565b836001600160a01b0316816001600160a01b031614610689576040516364283d7b60e01b81526001600160a01b0380861660048301526024820184905282166044820152606401610625565b808061113157506001600160a01b03821615155b156111f357600061114184610bc2565b90506001600160a01b0383161580159061116d5750826001600160a01b0316816001600160a01b031614155b8015611180575061117e8184610b06565b155b156111a95760405163a9fbf51f60e01b81526001600160a01b0384166004820152602401610625565b81156111f15783856001600160a01b0316826001600160a01b03167f8c5be1e5ebec7d5bd14f71427d1e84f3dd0314c0f7b2291e5b200ac8c7c3b92560405160405180910390a45b505b5050600090815260046020526040902080546001600160a01b0319166001600160a01b0392909216919091179055565b61122e83838361131a565b61072f576001600160a01b03831661125c57604051637e27328960e01b815260048101829052602401610625565b60405163177e802f60e01b81526001600160a01b038316600482015260248101829052604401610625565b606060006112948361137d565b600101905060008167ffffffffffffffff8111156112b4576112b46115a1565b6040519080825280601f01601f1916602001820160405280156112de576020820181803683370190505b5090508181016020015b600019016f181899199a1a9b1b9c1cb0b131b232b360811b600a86061a8153600a85049450846112e857509392505050565b60006001600160a01b038316158015906109ad5750826001600160a01b0316846001600160a01b0316148061135457506113548484610b06565b806109ad5750506000908152600460205260409020546001600160a01b03908116911614919050565b60008072184f03e93ff9f4daa797ed6e38ed64bf6a1f0160401b83106113bc5772184f03e93ff9f4daa797ed6e38ed64bf6a1f0160401b830492506040015b6d04ee2d6d415b85acef810000000083106113e8576d04ee2d6d415b85acef8100000000830492506020015b662386f26fc10000831061140657662386f26fc10000830492506010015b6305f5e100831061141e576305f5e100830492506008015b612710831061143257612710830492506004015b60648310611444576064830492506002015b600a831061052f5760010192915050565b6001600160e01b031981168114610b6f57600080fd5b60006020828403121561147d57600080fd5b813561106681611455565b60005b838110156114a357818101518382015260200161148b565b50506000910152565b600081518084526114c4816020860160208601611488565b601f01601f19169290920160200192915050565b60208152600061106660208301846114ac565b6000602082840312156114fd57600080fd5b5035919050565b80356001600160a01b038116811461151b57600080fd5b919050565b6000806040838503121561153357600080fd5b61153c83611504565b946020939093013593505050565b60008060006060848603121561155f57600080fd5b61156884611504565b925061157660208501611504565b9150604084013590509250925092565b60006020828403121561159857600080fd5b61106682611504565b634e487b7160e01b600052604160045260246000fd5b600067ffffffffffffffff808411156115d2576115d26115a1565b604051601f8501601f19908116603f011681019082821181831017156115fa576115fa6115a1565b8160405280935085815286868601111561161357600080fd5b858560208301376000602087830101525050509392505050565b6000806040838503121561164057600080fd5b823567ffffffffffffffff81111561165757600080fd5b8301601f8101851361166857600080fd5b611677858235602084016115b7565b92505060208301356001600160601b038116811461169457600080fd5b809150509250929050565b600080604083850312156116b257600080fd5b6116bb83611504565b91506020830135801515811461169457600080fd5b600080600080608085870312156116e657600080fd5b6116ef85611504565b93506116fd60208601611504565b925060408501359150606085013567ffffffffffffffff81111561172057600080fd5b8501601f8101871361173157600080fd5b611740878235602084016115b7565b91505092959194509250565b6000806040838503121561175f57600080fd5b61176883611504565b915061177660208401611504565b90509250929050565b600181811c9082168061179357607f821691505b6020821081036117b357634e487b7160e01b600052602260045260246000fd5b50919050565b634e487b7160e01b600052601160045260246000fd5b6000600182016117e1576117e16117b9565b5060010190565b600083516117fa818460208801611488565b83519083019061180e818360208801611488565b01949350505050565b8082018082111561052f5761052f6117b9565b601f82111561072f57600081815260208120601f850160051c810160208610156118515750805b601f850160051c820191505b81811015610fef5782815560010161185d565b815167ffffffffffffffff81111561188a5761188a6115a1565b61189e81611898845461177f565b8461182a565b602080601f8311600181146118d357600084156118bb5750858301515b600019600386901b1c1916600185901b178555610fef565b600085815260208120601f198616915b82811015611902578886015182559484019460019091019084016118e3565b50858210156119205787850151600019600388901b60f8161c191681555b5050505050600190811b01905550565b6001600160a01b0385811682528416602082015260408101839052608060608201819052600090611963908301846114ac565b9695505050505050565b60006020828403121561197f57600080fd5b81516110668161145556fea2646970667358221220beab17e1a244d8d6627a4a6fb87abea04e917d8cbc809c57a2f7e597e136ebd264736f6c63430008140033",
  "linkReferences": {},
  "deployedLinkReferences": {}
}